:020000040000FA
:020000000528D1
:080008004B28831686011C3011
:1000100085000730810083128030A30086018501AE
:10002000A001A101A201AA01CA013F30A600C90096
:100030000630A7005B30A8004F30A9006630B00042
:100040006D30B1007D30B2000730B3007F30B400B6
:100050006F30B5007730B6007F30B7003930B80068
:100060003F30B9007930C0007130C1003D30C2006E
:100070007630C3003030C4003830C5003F30C60091
:100080007330C7006D30C800A0308B00FF30860091
:10009000031023084A28A400030EA5000B11A20A8E
:1000A0002208103C031D1229A201A00A2108033CCA
:1000B000031DA10A2008013C0319B7282008023CAF
:1000C0000319B9282008033C0319BB282008043C65
:1000D0000319BD282008053C0319BF282008063C49
:1000E0000319C1282008073C0319C3282008083C2D
:1000F0000319C5282008093C0319C72820080A3C11
:100100000319C92820080B3C0319CB2820080C3CF4
:100110000319CD2820080D3C0319CF2820080E3CD8
:100120000319D12820080F3C0319D3282008103CBC
:100130000319D5282008113C0319D7282008123CA0
:100140000319D9282008133C0319DB282008143C84
:100150000319DD282008153C0319DF282008163C68
:100160000319E1282008173C0319E328E52826088D
:10017000E5282708E5282808E5282908E528300883
:10018000E5283108E5283208E5283308E528340851
:10019000E5283508E5283608E5283708E528380831
:1001A000E5283908E5284008E5284108E5284208FF
:1001B000E5284308E5284408E5284508E5284608D9
:1001C000E5284708E5284808A00186002108033CE7
:1001D0000319EB2812294A18EF284A14F0284A106C
:1001E0004A1C1129AA0A2A08083C031CF8280629D7
:1001F0002A08093C031DFE282708C9002A08113CCB
:10020000031D06292608C9000130AA000514491853
:100210000D290A29851003100F2985140314C90C10
:0E02200012290510250E8300A40E240E0900DD
:02400E00FA3F77
:00000001FF
